:100000006F10B07D00000000542000005020000060
:1000100000000000000000000000000000000000E0
:1000200000000000000000000000000000000000D0
:1000300050200000000000005020000000000000E0
:1000400050200000502000005020000050200000F0
:1000500050200000502000005020000050200000E0
:1000600050200000502000005020000050200000D0
:1000700050200000502000005020000050200000C0
:1000800050200000502000005020000050200000B0
:10009000502000005020000050200000010000000F
:1000A000211106CA22C820082328A4FE2326B4FE54
:1000B0002324C4FE0326C4FE832504FF0145EF105C
:1000C00090088327C4FE3E85D2404244610182806D
:1000D000797106CC22CA60082324A4FE0CC050C04B
:1000E00014C458C41CC8930744012322F4FE832778
:1000F00044FEB1172326F4FE8327C4FEBE860326E2
:1001000084FE81451305000AEF1080332328A4FEE6
:10011000832704FF3E85E2405244456182803111CD
:1001200006C822C640082328A4FE2326B4FE832640
:10013000C4FE032604FF81451305000AEF1040307A
:10014000AA873E85C240324451018280797106D02F
:1001500022CE40102324A4FE2322B4FE2320C4FE7A
:1001600014C058C01CC49307C400232EF4FC83277A
:10017000C4FDD1172326F4FE8327C4FEBE860326C2
:1001800004FE832544FE032584FEEF10202323284C
:10019000A4FE832704FF3E8582507244456182801D
:1001A000511122C46000232AA4FE832744FF232C7C
:1001B000F4FE31A0832744FF8507232AF4FE83271A
:1001C00044FF83C70700FDF7032744FF832784FF0D
:1001D000B307F7403E85224431018280211106CACF
:1001E00022C820082326A4FE2324B4FE032684FE6E
:1001F00081450325C4FEEF00105B2328A4FE83275E
:1002000004FF81CB032704FF8327C4FEB307F74015
:1002100019A0832784FE3E85D2404244610182803A
:10022000311122C84008232AA4FE2328B4FE232625
:10023000C4FE832744FF232CF4FE1DA0832704FF64
:1002400013F7F70F832784FF2380E7008327C4FE7B
:10025000FD172326F4FE832784FF8507232CF4FE55
:100260008327C4FEE1FF832744FF3E8542445101BA
:100270008280511122C46000232CA4FE232AB4FEE4
:1002800019A8832744FF8507232AF4FE832784FFC8
:100290008507232CF4FE832744FF03C70700832729
:1002A00084FF2380E700832784FF83C70700F1FBD7
:1002B000832784FF3E85224431018280411122C67A
:1002C0000008232CA4FE232AB4FE2328C4FE05A084
:1002D000832704FFFD172328F4FE832744FF8507A7
:1002E000232AF4FE832784FF8507232CF4FE83272B
:1002F00004FF91CF832744FF03C70700832784FFB0
:100300002380E700832784FF83C70700F1F3832757
:1003100084FF3E85324441018280511122C4600035
:10032000232CA4FE232AB4FE19A8832784FF850763
:10033000232CF4FE832744FF8507232AF4FE83271A
:1003400084FF03C70700832744FF83C707006317A1
:10035000F700832784FF83C70700E1FB832784FF1F
:1003600083C707003E87832744FF83C70700B3077F
:10037000F7403E85224431018280211122CA2008A3
:100380002328A4FE2326B4FE2324C4FE832704FFCF
:10039000232CF4FE8327C4FE232AF4FE832784FE45
:1003A0001387F7FF2324E4FE95E3814795A0832775
:1003B00084FF8507232CF4FE832744FF8507232A27
:1003C000F4FE832784FEFD172324F4FE832784FF95
:1003D00083C707009DC3832744FF83C7070091CFCE
:1003E000832784FE99CB832784FF03C707008327D5
:1003F00044FF83C70700E30CF7FA832784FF83C712
:1004000007003E87832744FF83C70700B307F740F1
:100410003E85524461018280411122C60008232A90
:10042000A4FE2328B4FE832704FF83C70700A20786
:10043000139707014187832704FF850783C70700B8
:10044000C207C187D98FC207C187231CF4FE832747
:1004500044FF83C70700A20713970701418783273B
:1004600044FF850783C70700C207C187D98FC2072A
:10047000C187231DF4FE832744FF8507232AF4FE4A
:100480003DA08357A4FFA207139707014187832745
:1004900044FF8507232AF4FE832744FF83C7070010
:1004A000C207C187D98FC207C187231DF4FE8327E6
:1004B00044FF83C7070099C70357A4FF835784FFEE
:1004C000E311F7FC832744FF83C7070089C783270D
:1004D00044FFFD1711A081473E85324441018280CF
:1004E000311122C840082328A4FE2326B4FE832706
:1004F000C4FE83C70700E2070327C4FE05070347BE
:1005000007004207D98F0327C4FE090703470700E6
:100510002207D98F232AF4FE832704FF83C707000D
:10052000E207032704FF0507034707004207D98FA7
:10053000032704FF0907034707002207D98F232C4D
:10054000F4FE832704FF89072328F4FE0DA08327E8
:1005500004FF85072328F4FE832704FF83C70700D1
:100560003E87832784FFD98FA207232CF4FE83279D
:1005700004FF83C7070099C7032784FF832744FF2D
:10058000E317F7FC832704FF83C7070089C7832786
:1005900004FFF91711A081473E8542445101828032
:1005A000311122C840082328A4FE2326B4FE832745
:1005B000C4FE83C70700E2070327C4FE05070347FD
:1005C00007004207D98F0327C4FE09070347070026
:1005D0002207D98F0327C4FE0D0703470700D98FD1
:1005E000232AF4FE832704FF83C70700E2070327BB
:1005F00004FF0507034707004207D98F032704FFBD
:100600000907034707002207D98F032704FF0D07B7
:1006100003470700D98F232CF4FE832704FF8D079F
:100620002328F4FE05A0832784FFA207032704FFE5
:1006300005072328E4FE032704FF03470700D98F9B
:10064000232CF4FE832704FF83C7070099C70327E1
:1006500084FF832744FFE318F7FC832704FF83C745
:10066000070089C7832704FFF51711A081473E853E
:100670004244510182801301C1B923201146232E27
:100680008144130441462320A4BA232EB4B8232264
:1006900004FA232404FA232604FA232804FA232A3A
:1006A00004FA232C04FA232E04FA232004FC232624
:1006B00004FE71A00327C4B98327C4FEBA9783C779
:1006C0000700958393F7F70F8A07130744FFBA973C
:1006D00003A707FB8326C4B98327C4FEB69783C745
:1006E0000700FD8B8546B397F6000326C4B9832621
:1006F000C4FEB29683C60600958293F6F60F5D8F10
:1007000093972600930644FFB69723A8E7FA03279A
:10071000C4B98327C4FEBA9783C70700BE86832760
:10072000C4FE1387170093972600930644FFB697DD
:1007300023A8E7BA8327C4FE85072326F4FE0327F0
:10074000C4B98327C4FEBA9783C7070089CB0327A0
:1007500004BA8327C4FEBA9783C70700A1FF032703
:10076000C4B98327C4FEBA9783C7070099C38147DA
:1007700041A1FD572324F4FE232204FE8547232EA6
:10078000F4FC8327C4FD2320F4FEF1A0032784FE9C
:10079000832704FEBA970327C4B9BA9703C7070093
:1007A000832644FE832704FEB6978326C4B9B697F2
:1007B00083C707006319F702032704FE8327C4FDDC
:1007C000631DF700032744FE8327C4FDBA97232245
:1007D000F4FE85472320F4FEBDA8832704FE850789
:1007E0002320F4FE8DA8032784FE832704FEBA97F6
:1007F0000327C4B9BA9703C70700832644FE83279B
:1008000004FEB6978326C4B9B69783C7070063F57D
:10081000E702032744FE832704FEBA972322F4FE4F
:1008200085472320F4FE032744FE832784FEB30775
:10083000F740232EF4FC05A0832744FE13871700FE
:100840002322E4FE2324F4FE8547232EF4FC832791
:10085000C4FD2320F4FE032744FE832704FEBA9739
:100860000327C4FEE3E4E7F2832784FE232CF4FC91
:100870008327C4FD2326F4FCFD572324F4FE232202
:1008800004FE8547232EF4FC8327C4FD2320F4FEB9
:10089000F1A0032784FE832704FEBA970327C4B977
:1008A000BA9703C70700832644FE832704FEB69742
:1008B0008326C4B9B69783C707006319F7020327D5
:1008C00004FE8327C4FD631DF700032744FE83272E
:1008D000C4FDBA972322F4FE85472320F4FEBDA869
:1008E000832704FE85072320F4FE8DA8032784FEBA
:1008F000832704FEBA970327C4B9BA9703C7070032
:10090000832644FE832704FEB6978326C4B9B69790
:1009100083C707006375F702032744FE832704FE9D
:10092000BA972322F4FE85472320F4FE032744FED2
:10093000832784FEB307F740232EF4FC05A083270A
:1009400044FE138717002322E4FE2324F4FE854788
:10095000232EF4FC8327C4FD2320F4FE032744FE4A
:10096000832704FEBA970327C4FEE3E4E7F2832754
:1009700084FE13871700832784FD850763F7E7004C
:10098000832784FE232CF4FC29A08327C4FC232E78
:10099000F4FC0327C4B98327C4FD3E97832784FD55
:1009A00085073E86BA850325C4B96129AA8785C70C
:1009B000232804FC0327C4FE832784FDB307F740E4
:1009C0001387F7FF832784FD63F3E700BA87850762
:1009D000232EF4FC09A80327C4FE8327C4FDB30714
:1009E000F7402328F4FC232A04FC832704BA232895
:1009F000F4FE032704FF832704BAB307F7403E87BA
:100A00008327C4FE637BF7048327C4FE93E7F703C1
:100A10002324F4FC032684FC8145032504FF612381
:100A20002322A4FC832744FC95C3832744FC23286A
:100A3000F4FE032704FF832704BAB307F7403E8779
:100A40008327C4FE637BF70081475DA2032704FF71
:100A5000832784FCBA972328F4FE8327C4FEFD175E
:100A6000032704BABA9783C70700958393F7F70F54
:100A70008A07130744FFBA9703A707FB8327C4FE1F
:100A8000FD17832604BAB69783C70700FD8B8546FA
:100A9000B397F600F98FA1CF8327C4FEFD17032774
:100AA00004BABA9783C707008A07130744FFBA97A7
:100AB00083A707BB0327C4FEB307F7402320F4FE38
:100AC000832704FE9DCF032704FE832744FD63761E
:100AD000F700832744FD2320F4FE032704BA83276D
:100AE00004FEBA972320F4BA232A04FC09A20327A0
:100AF00004BA8327C4FEBA972320F4BA232A04FC3D
:100B0000FDA0832784FD13871700832744FD63F32B
:100B1000E700BA872320F4FE31A0832704FE85076F
:100B20002320F4FE0327C4B9832704FEBA9783C7A2
:100B300007008DC30327C4B9832704FEBA9703C7F0
:100B40000700832604BA832704FEB69783C70700ED
:100B5000E305F7FC0327C4B9832704FEBA9783C7CC
:100B6000070099CF032704FE832784FDB307F740CE
:100B7000032704BABA972320F4BA232A04FC85A8D1
:100B8000832784FD85072320F4FE31A0832704FEFC
:100B9000FD172320F4FE032704FE832744FD63F49E
:100BA000E702832704FEFD170327C4B9BA9703C7DA
:100BB0000700832704FEFD17832604BAB69783C770
:100BC0000700E305F7FC032704FE832744FD63E5E4
:100BD000E700832704BA29A8032704BA8327C4FDA2
:100BE000BA972320F4BA832704FD232AF4FC11B515
:100BF0003E85832001460324C1451301414682807E
:100C0000311106C822C640082328A4FE2326B4FEBC
:100C10008327C4FE83C7070081E7832704FF6DA8ED
:100C20008327C4FE83C70700BE85032504FF55281C
:100C30002328A4FE832704FF99C78327C4FE8507C2
:100C400083C7070081E7832704FF79A0832704FF78
:100C5000850783C7070099E38147BDA88327C4FEA2
:100C6000890783C7070089EB8325C4FE032504FF9A
:100C7000EFF08FFAAA878DA0832704FF890783C727
:100C8000070099E3814789A88327C4FE8D0783C79E
:100C9000070081EB8325C4FE032504FF9130AA875A
:100CA00025A8832704FF8D0783C7070099E38147A1
:100CB00025A08327C4FE910783C7070081EB832506
:100CC000C4FE032504FFE938AA8739A08325C4FEA2
:100CD000032504FF4D32AA873E85C24032445101AC
:100CE0008280311106C822C640082328A4FE23268C
:100CF000B4FE8327C4FE93F7F70F2326F4FE832761
:100D0000C4FE99EF032504FFEFF08FC92A878327DC
:100D100004FFBA9735A0832704FF85072328F4FE34
:100D2000832704FF83C7070091CB832704FF83C772
:100D300007003E878327C4FEE39FE7FC832704FF69
:100D40003E85C240324451018280311122C84008A0
:100D5000232AA4FE2328B4FE2326C4FE832744FFAF
:100D6000232CF4FE832704FF93F7F70F2328F4FEC8
:100D70001DA0032784FF8327C4FEBA9783C70700FB
:100D80003E87832704FF6398E700032784FF8327B8
:100D9000C4FEBA9709A88327C4FE1387F7FF23264A
:100DA000E4FEE1FB81473E854244510182803111DE
:100DB00006C822C640082328A4FE2326B4FE032525
:100DC00004FFEFF0EFBDAA8785073E868325C4FEAA
:100DD000032504FF9D3FAA873E85C240324451014E
:100DE0008280211122CA20082328A4FE2326B4FED3
:100DF0002324C4FE832704FF232CF4FE8327C4FE90
:100E0000232AF4FE35A0032744FF93071700232A63
:100E1000F4FE832784FF93861700232CD4FE034718
:100E200007002380E700832784FEFD172324F4FEB8
:100E3000832784FEE9FB832704FF3E85524461013A
:100E40008280211122CA20082328A4FE2326B4FE72
:100E50002324C4FE832704FF232CF4FE8327C4FE2F
:100E6000232AF4FE05A0832784FEFD172324F4FE25
:100E7000832784FF8507232CF4FE832744FF8507FF
:100E8000232AF4FE832784FE99CB832784FF03C79C
:100E90000700832744FF83C70700E306F7FC832787
:100EA00084FE89CF832784FF83C707003E8783277B
:100EB00044FF83C70700B307F74011A081473E8571
:100EC000524461018280011106CE22CC00102324FD
:100ED000A4FE2322B4FE2320C4FE832784FE2328FD
:100EE000F4FE832744FE2326F4FE032704FF832712
:100EF000C4FE6315F700832704FF4DA00327C4FE3B
:100F0000832704FF1D8F832704FE1D8F832604FE85
:100F10008147958F860763EBE700032604FE832550
:100F2000C4FE032504FF753DAA878DA8032704FF8F
:100F30008327C4FE637FF70435A00327C4FE93070D
:100F400017002326F4FE832704FF93861700232827
:100F5000D4FE034707002380E700832704FEFD1724
:100F60002320F4FE832704FEE9FB3DA0832704FE33
:100F7000FD172320F4FE0327C4FE832704FE3E97BB
:100F8000832604FF832704FEB697034707002380C8
:100F9000E700832704FEF9FB832784FE3E85F240A9
:100FA000624405618280311122C84008232AA4FED0
:100FB0002328B4FE2326C4FE832744FF232CF4FEFB
:100FC000832704FF93F7F70F2328F4FE19A883273C
:100FD00084FF8507232CF4FE8327C4FEFD172326F8
:100FE000F4FE8327C4FE91CB832784FF83C70700C9
:100FF0003E87832704FFE39CE7FC8327C4FE81C769
:10100000832784FF11A081473E854244510182809D
:10101000311106C822C640082326A4FE0325C4FEBB
:10102000EFF00F98AA872328F4FE032604FF8325F8
:10103000C4FE0145EF003011054689679385870698
:101040000145EF005010832704FF85073E85C2400D
:10105000324451018280130181FC06DA22D8201823
:10106000232CA4FC232AB4FC2328C4FC2326D4FC70
:101070002324E4FC832784FC2328F4FE232604FE97
:10108000032744FDC14763F4E700814789AA83270A
:1010900084FD63DE07008327C4FC91EB854723268C
:1010A000F4FE832784FDB307F040232CF4FC832750
:1010B00084FD832544FD3E85EF00906DAA872322A1
:1010C000F4FE032744FEA54763CBE700832744FED5
:1010D00093F7F70F9387070313F7F70F1DA08327E5
:1010E00004FD81C79307100419A093071006032776
:1010F00044FE1377F70FBA9793F7F70FD91713F743
:10110000F70F832704FF938617002328D4FE23803C
:10111000E700832784FD832544FD3E85EF0090642E
:10112000AA87232CF4FC832784FDE342F0F883276D
:10113000C4FE99CB832704FF138717002328E4FEFE
:101140001307D0022380E700832704FF23800700D2
:10115000032704FF832784FCB307F7402320F4FE12
:10116000232404FE85A0832784FE032784FCBA97EA
:1011700083C70700A30FF4FC032704FE832784FE24
:10118000B307F740FD17032784FC3E97832784FEAF
:10119000832684FCB697034707002380E7000327D4
:1011A00004FE832784FEB307F740FD17032784FC62
:1011B000BA970347F4FD2380E700832784FE850761
:1011C0002324F4FE832704FE13D7F701BA978587FB
:1011D0003E87832784FEE3C8E7F8832704FE3E8525
:1011E000D25042541301810382801301C1FD22D0E9
:1011F00040102326A4FE2324B4FEB2872320D4FE6D
:10120000232EE4FCA303F4FE232A04FE8327C4FD5B
:101210002328F4FE832704FE89E7832784FE232006
:10122000F4FE032784FE832704FE63D9E7008327A7
:1012300004FE2324F4FE8547232AF4FE032704FE3C
:10124000832784FEB307F740232CF4FE05A08327F1
:1012500004FF138717002328E4FE034774FE23804E
:10126000E700832784FFFD17232CF4FE832784FFE8
:10127000E34FF0FC832784FE232CF4FE35A00327E4
:10128000C4FE930717002326F4FE832704FF9386EA
:1012900017002328D4FE034707002380E700832795
:1012A00084FFFD17232CF4FE832784FFE349F0FC21
:1012B000032704FF8327C4FDB307F7402324F4FE6C
:1012C000832744FF9DCF232C04FE0DA0832704FF1A
:1012D0001387F7FF2328E4FEFD171307A0022380DE
:1012E000E700832784FF8507232CF4FE032784FF70
:1012F000894763C8E700032704FF8327C4FDE3E7AA
:10130000E7FC832784FE3E8502541301410282805C
:10131000111122CC60082326A4FE2324B4FE23222C
:10132000C4FE832744FE81E7832784FE61A08327D0
:1013300044FE232AF4FE832744FF9C432328F4FE23
:10134000232C04FEA1A0832744FFD843832744FF16
:101350009443832744FF9C47FD17B697630FF7021A
:10136000832784FF0327C4FE3E97832744FFDC4383
:1013700013861700832644FFD0C20347070023804B
:10138000E700832784FF8507232CF4FE032784FFCF
:10139000832784FEE349F7FA11A00100832744FF65
:1013A000DC4323800700832744FFD843832704FFBF
:1013B000B307F7403E85624471018280130141FD0D
:1013C00006D422D260102320A4FE232EB4FC232CAA
:1013D000C4FC232AD4FC832704FE2322F4FE8327A3
:1013E00004FE2324F4FE8327C4FD2326F4FE832772
:1013F000C4FD99E3232004FE832704FE81C79307DD
:1014000044FE11A08147832644FD032684FDBE854A
:101410008567138507312D202328A4FE832704FE2A
:1014200081E7832704FF39A0032784FE832744FE36
:10143000B307F7403E85A25012541301C1028280C7
:10144000130181F986D2A2D0A0102322A4FA23206E
:10145000B4FA232EC4F8232CD4F8832744FA81EB62
:101460008567938707312322F4FA232004FA23287F
:1014700004FEBDA60347B4FA930750026302F702C5
:1014800085472326F4FE9307B4FA032744FA03267C
:1014900004FA8325C4FE3E8502972326A4FE15AEDA
:1014A00093070002A305F4FE232204FEA30104FE19
:1014B0008327C4F913871700232EE4F883C7070096
:1014C000A305F4FA0347B4FA93070003631FF70276
:1014D00093070003A305F4FE0DA8032744FEBA8773
:1014E0008A07BA9786073E878347B4FA938707FD32
:1014F000BA972322F4FE8327C4F913871700232EFB
:10150000E4F883C70700A305F4FA0347B4FA930786
:10151000F00263F8E7000347B4FA93079003E3FE91
:10152000E7FA032744FEE14763D5E700E1472322BA
:10153000F4FE0347B4FA9307C006631FF70085471C
:10154000A301F4FE8327C4F913871700232EE4F8C0
:1015500083C70700A305F4FA8347B4FA6381072A17
:1015600063C90724130780076345F7241307800521
:1015700063C1E724938787FA13070002636BF7229E
:101580001397270089679387C706BA979C4382877A
:10159000834734FE9DCB832784F913874700232C90
:1015A000E4F89C433E858347B4FA9387B7F893B732
:1015B000170093F7F70FBE869307C4FA3E870146DC
:1015C000A945513C2326A4FE89A80347B4FA9307F2
:1015D00050076314F702832784F913874700232CED
:1015E000E4F89C433E859307C4FA3E87854601464E
:1015F000A94595342326A4FE0DA0832784F91387DB
:101600004700232CE4F89C431307C4FA81460146A3
:10161000A9453E8589342326A4FE130744FC0346CE
:10162000B4FE9307C4FA832644FE8325C4FE3E8598
:101630006D3E2326A4FE930744FC032744FA0326A9
:1016400004FA8325C4FE3E8502972326A4FE51A2F8
:10165000834734FE9DCB832784F913874700232CCF
:10166000E4F89C433E858347B4FA938787FA93B79F
:10167000170093F7F70F3E869307C4FA3E87854617
:10168000C145D13A2326A4FE15A8832784F91387E0
:101690004700232CE4F89C433E858347B4FA9387A4
:1016A00087FA93B7170093F7F70F3E869307C4FAAC
:1016B0003E878546C14545322326A4FE130744FCD8
:1016C0000346B4FE9307C4FA832644FE8325C4FE72
:1016D0003E85213E2326A4FE930744FC032744FABB
:1016E000032604FA8325C4FE3E8502972326A4FE22
:1016F000CDA0832784F913874700232CE4F89C436B
:1017000093F7F70FA305F4FA130744FC0346B4FE5E
:101710009307B4FA832644FE85453E85F934232693
:10172000A4FE930744FC032744FA032604FA832506
:10173000C4FE3E8502972326A4FE61A8832784F970
:1017400013874700232CE4F89C43232EF4FC032545
:10175000C4FDEFE0FFA4AA872326F4FE832744FEFE
:10176000635DF002130744FC8347B4FE832644FE06
:101770003E868325C4FE0325C4FD853C2326A4FEA6
:10178000930744FC032744FA032604FA8325C4FE86
:101790003E8502972326A4FE2DA8832744FA03261C
:1017A00004FA8325C4FE0325C4FD82972326A4FEE4
:1017B0000DA085472326F4FE9307B4FA032744FAC5
:1017C000032604FA8325C4FE3E8502972326A4FE41
:1017D0000100032704FF8327C4FEBA972328F4FEE1
:1017E0008327C4F913871700232EE4F883C7070063
:1017F000A305F4FA8347B4FAE39E07C611A00100DB
:10180000832704FF3E85965006541301810682808B
:10181000797106D022CE40102324A4FE2322B4FEE8
:101820002320C4FE14C058C01CC49307C400232E38
:10183000F4FC8327C4FDD1172326F4FE8327C4FEBE
:10184000BE86032604FE832544FE032584FEBD36A2
:101850002328A4FE832704FF3E85825072444561FD
:101860008280797106D022CE40102324A4FE232248
:10187000B4FE2320C4FE14C058C01CC49307C40087
:10188000232EF4FC8327C4FDD1172326F4FE8327DF
:10189000C4FEBE86032604FE832544FE032584FE83
:1018A00045362328A4FE832704FF3E8582507244D8
:1018B00045618280511122C46000232CA4FE232A9A
:1018C000B4FE0100224431018280211106CA22C8DF
:1018D00020082324A4FE832784FE9C432328F4FEAF
:1018E000832704FF93F7F703F1172326F4FE8327DA
:1018F000C4FE6359F000832784FE8507BE85032557
:10190000C4FE4D3F0100D24042446101828041113A
:1019100006C622C40008B70700E09387470F2328B4
:10192000F4FE832704FF9C4393F7070881EB03250C
:1019300004FF613F832704FF23A007000100B2409A
:10194000224441018280797106D622D40018232CCA
:10195000A4FC232AB4FC2328C4FC232E04FC232843
:1019600004FEB7770200938707102326F4FE83272F
:1019700004FD639E0716B70700E09387470F9C435B
:101980002320F4FE832704FE63830716832704FEC7
:1019900093F70708639D0714B70700E01385470F07
:1019A0002D37B1A2032704FD832704FFB307F740B7
:1019B0002324F4FE032784FE9D4763D0E7029D475E
:1019C0002324F4FE19A88327C4FE1387F7FF2326D8
:1019D000E4FE81E7832704FF1DA2B70700E0938799
:1019E000470F9C432320F4FE832704FE93F7070848
:1019F000F9FB832704FE91C7B70700E01385470F63
:101A0000E935B7770200938707102326F4FE8D4748
:101A10002322F4FE0DA8032744FE832704FFBA9770
:101A20003E87832744FD3E97832744FEF5170347EF
:101A30000700930644FFB6972384E7FE832744FEFE
:101A400085072322F4FE032744FE832784FEE34414
:101A5000F7FC1307C4FDB70700E09387870F18430F
:101A600098C3232204FE0DA8032744FE832704FF06
:101A7000BA973E87832744FD3E97832744FE850718
:101A800003470700930644FFB6972384E7FE8327A6
:101A900044FE85072322F4FE032744FE832784FEA9
:101AA0006357F700032744FE8947E3DFE7FA8327FC
:101AB00084FE93F7F70F910793F7F70FE207E1879B
:101AC00093E707F8E207E18793F7F70F230EF4FC9B
:101AD0001307C4FDB70700E09387470F184398C367
:101AE000032704FF832784FEBA972328F4FE0327E5
:101AF00004FF832704FDE347F7EA832704FD3E85BF
:101B0000B250225445618280211106CA22C82008A1
:101B10002324A4FEB7770200938707102328F4FE3E
:101B2000232604FE11A8832704FF1387F7FF232829
:101B3000E4FE99E3814791A0B70700E09387470F40
:101B40009C432326F4FE8327C4FE93F70708E1FF96
:101B50008327C4FE91C7B70700E01385470FB5334D
:101B6000832784FE93F7F70FA20713E75708B707F9
:101B700000E09387470F98C385473E85D240424493
:101B800061018280711122C04000B70700E0938795
:101B9000870F23A00700B70700E09387470F1307BD
:101BA000000898C30100024411018280711122C013
:101BB00040000100B70700E09387470F9C4393F76D
:101BC0000708EDFB01000100024411018280511160
:101BD00022C46000232AA4FEB7F700E09C47032735
:101BE00044FFBA97232CF4FE0100B7F700E09847B2
:101BF000832784FFB307F740E3C907FE0100010014
:101C0000224431018280411106C622C40008B71760
:101C1000024023A20700B717024037070801130745
:101C2000170898C3B7270240054798C3B717024063
:101C300037079F0098C70100B71702409843B707BE
:101C40000002F98FF5DBB7170240DC43F19B232834
:101C5000F4FEB7170240032704FF13672700D8C319
:101C60000100B7170240DC4313F7C700A147E31A8E
:101C7000F7FE093F0100B240224441018280311148
:101C800006C822C640084137F53DB727024037074E
:101C900067451307371298C7B72702403797EFCD2C
:101CA0001307B79A98C7B727024037076745130746
:101CB0003712D8C3B72702403797EFCD1307B79A2B
:101CC000D8C3B72702403707674513073712D8D361
:101CD000B72702403797EFCD1307B79AD8D3B70786
:101CE00000209387078083D72700C207C183BE8562
:101CF00089671385070FEFE0AFBD9307500A2319DB
:101D0000F4FE37050B0001242326A4FE0327C4FE9E
:101D10009147631FF70AB727024037076745130744
:101D2000371298C7B72702403797EFCD1307B79AF6
:101D300098C7B7270240984BB7270240136707029E
:101D400098CBB7270240984BB72702401367070488
:101D500098CB37050B00452A2326A4FE0327C4FE93
:101D60009147631BF704B7270240984BB7270240FF
:101D70001377F7FD98CBB7270240984BB72702405F
:101D80001367070198CBB707002093870780035795
:101D900024FF2390E7000965BD222326A4FE032724
:101DA000C4FE95476306F702B7270240984BB72752
:101DB00002403D9B98CB29A80327C4FE95476309A1
:101DC000F700B7270240984BB72702403D9B98CBBE
:101DD000B70700209387078083D72700C207C183F6
:101DE000BE85896713850711EFE08FAEB7270240E4
:101DF000370767451307371298C7B7270240379749
:101E0000EFCD1307B79A98C7896713850771E5283F
:101E10002326A4FE0327C4FE9147631EF706B727B7
:101E20000240984BB72702401367070198CB03D7AE
:101E3000618083D74180D98F139707014183B7070A
:101E4000002083D70700D98F139707014183B70775
:101E5000002083D72700D98F139707014183B70745
:101E60000020938707801367070E42074183239161
:101E7000E70089671385077179202326A4FE0327CD
:101E8000C4FE95476309F700B7270240984BB72770
:101E900002403D9B98CBB70700209387078083D7EC
:101EA0002700C207C183BE85896713854712EFE00B
:101EB0002FA2896713858713EFF08F9501A0611119
:101EC00022C220009147232CF4FEB7270240DC47B2
:101ED00013F7170085476316F7008547232CF4FE98
:101EE00029A8B7270240DC47C18B89C78D47232C1F
:101EF000F4FE21A09147232CF4FE832784FF3E8526
:101F0000124421018280311106C822C640082326CE
:101F1000A4FE91472328F4FE5D372328A4FE09A8D8
:101F2000793F2328A4FE8327C4FEFD172326F4FE51
:101F3000032704FF85476315F7008327C4FEEDF3ED
:101F40008327C4FE81E795472328F4FE832704FFF7
:101F50003E85C2403244510182800000634E05023A
:101F600063C305042E86AA857D5515C28546637810
:101F7000B6006356C00006068606E36CB6FE014551
:101F800063E4C500918D558D85820582F5FA8280C6
:101F90008682C93F2E8582823305A0406347B00008
:101FA000B305B040C1B7B305B0408682653F330585
:101FB000A0408282868263C70500634905005D37C1
:101FC0002E858282B305B040E35B05FE3305A04059
:101FD000513F3305B0408282000097F1FF1F93818B
:101FE00061821381010013050008731005308D46CE
:101FF00017E5FFFF13050501558D73105530138547
:1020000081809385818001466356B50010C111051A
:10201000E34EB5FE170500001305C51297E5FF1F37
:10202000938545FE138681806388C500144194C161
:1020300011059105E39AC5FEB7F700E0054798C37F
:1020400089679387E7C773901734730020300100C6
:1020500001A00100B71702409447B71702403707A5
:102060008000558F98C701000A000000501600003C
:10207000B2170000B2170000B2170000B21700003C
:10208000B2170000B2170000B2170000B21700002C
:10209000B2170000B2170000F21600009015000001
:1020A000B2170000B2170000B2170000B21700000C
:1020B000B2170000B2170000B2170000B2170000FC
:1020C000B2170000B2170000B2170000B2170000EC
:1020D000B2170000B21700003C170000B217000052
:1020E00090150000B2170000B21700005016000053
:1020F0004F7074696F6E20627974657320737461B8
:10210000727465642061733A253034780A000000E7
:10211000416674657220436C6561723A253034788B
:102120000A00000041667465722057726974653A4E
:10213000253034780A000000446F6E65000000000E
:08214000020001000400180078
:00000001FF
